{
  "contractName": "Casino",
  "abi": [
    {
      "inputs": [
        {
          "internalType": "uint256",
          "name": "_minimumBet",
          "type": "uint256"
        }
      ],
      "stateMutability": "nonpayable",
      "type": "constructor"
    },
    {
      "stateMutability": "payable",
      "type": "fallback"
    },
    {
      "inputs": [],
      "name": "maxAmountOfBets",
      "outputs": [
        {
          "internalType": "uint256",
          "name": "",
          "type": "uint256"
        }
      ],
      "stateMutability": "view",
      "type": "function"
    },
    {
      "inputs": [],
      "name": "minimumBet",
      "outputs": [
        {
          "internalType": "uint256",
          "name": "",
          "type": "uint256"
        }
      ],
      "stateMutability": "view",
      "type": "function"
    },
    {
      "inputs": [],
      "name": "numberOfBets",
      "outputs": [
        {
          "internalType": "uint256",
          "name": "",
          "type": "uint256"
        }
      ],
      "stateMutability": "view",
      "type": "function"
    },
    {
      "inputs": [],
      "name": "owner",
      "outputs": [
        {
          "internalType": "address",
          "name": "",
          "type": "address"
        }
      ],
      "stateMutability": "view",
      "type": "function"
    },
    {
      "inputs": [
        {
          "internalType": "address",
          "name": "",
          "type": "address"
        }
      ],
      "name": "playerInfo",
      "outputs": [
        {
          "internalType": "uint256",
          "name": "amountBet",
          "type": "uint256"
        },
        {
          "internalType": "uint256",
          "name": "numberSelected",
          "type": "uint256"
        }
      ],
      "stateMutability": "view",
      "type": "function"
    },
    {
      "inputs": [
        {
          "internalType": "uint256",
          "name": "",
          "type": "uint256"
        }
      ],
      "name": "players",
      "outputs": [
        {
          "internalType": "address",
          "name": "",
          "type": "address"
        }
      ],
      "stateMutability": "view",
      "type": "function"
    },
    {
      "inputs": [],
      "name": "totalBet",
      "outputs": [
        {
          "internalType": "uint256",
          "name": "",
          "type": "uint256"
        }
      ],
      "stateMutability": "view",
      "type": "function"
    },
    {
      "stateMutability": "payable",
      "type": "receive"
    },
    {
      "inputs": [],
      "name": "kill",
      "outputs": [],
      "stateMutability": "nonpayable",
      "type": "function"
    },
    {
      "inputs": [
        {
          "internalType": "address",
          "name": "player",
          "type": "address"
        }
      ],
      "name": "checkPlayerExists",
      "outputs": [
        {
          "internalType": "bool",
          "name": "",
          "type": "bool"
        }
      ],
      "stateMutability": "view",
      "type": "function"
    },
    {
      "inputs": [
        {
          "internalType": "uint256",
          "name": "numberSelected",
          "type": "uint256"
        }
      ],
      "name": "bet",
      "outputs": [],
      "stateMutability": "payable",
      "type": "function"
    },
    {
      "inputs": [],
      "name": "generateNumberWinner",
      "outputs": [],
      "stateMutability": "nonpayable",
      "type": "function"
    },
    {
      "inputs": [
        {
          "internalType": "uint256",
          "name": "numberWinner",
          "type": "uint256"
        }
      ],
      "name": "distributePrizes",
      "outputs": [],
      "stateMutability": "nonpayable",
      "type": "function"
    },
    {
      "inputs": [],
      "name": "withdraw",
      "outputs": [],
      "stateMutability": "nonpayable",
      "type": "function"
    }
  ],
  "bytecode": "0x60806040526064600455348015610014575f80fd5b50604051610f69380380610f69833981810160405281019061003691906100c1565b335f806101000a81548173ffffffffffffffffffffffffffffffffffffffff021916908373ffffffffffffffffffffffffffffffffffffffff1602179055505f811461008457806001819055505b506100ec565b5f80fd5b5f819050919050565b6100a08161008e565b81146100aa575f80fd5b50565b5f815190506100bb81610097565b92915050565b5f602082840312156100d6576100d561008a565b5b5f6100e3848285016100ad565b91505092915050565b610e70806100f95f395ff3fe6080604052600436106100c5575f3560e01c80636ca3fc3b1161007e578063c38a8afd11610058578063c38a8afd14610221578063e08a96cd1461024b578063f71d96cb14610275578063fe5e1853146102b1576100cc565b80636ca3fc3b146101b35780637365870b146101db5780638da5cb5b146101f7576100cc565b80630a50e361146100ce5780632ca8c6d3146100e45780633ccfd60b1461010e5780634081d9161461012457806341c0e1b5146101605780634b11469114610176576100cc565b366100cc57005b005b3480156100d9575f80fd5b506100e26102db565b005b3480156100ef575f80fd5b506100f8610303565b60405161010591906109b0565b60405180910390f35b348015610119575f80fd5b50610122610309565b005b34801561012f575f80fd5b5061014a60048036038101906101459190610a27565b610400565b6040516101579190610a6c565b60405180910390f35b34801561016b575f80fd5b506101746104a8565b005b348015610181575f80fd5b5061019c60048036038101906101979190610a27565b6104b5565b6040516101aa929190610a85565b60405180910390f35b3480156101be575f80fd5b506101d960048036038101906101d49190610ad6565b6104d5565b005b6101f560048036038101906101f09190610ad6565b61070b565b005b348015610202575f80fd5b5061020b610905565b6040516102189190610b10565b60405180910390f35b34801561022c575f80fd5b50610235610928565b60405161024291906109b0565b60405180910390f35b348015610256575f80fd5b5061025f61092e565b60405161026c91906109b0565b60405180910390f35b348015610280575f80fd5b5061029b60048036038101906102969190610ad6565b610934565b6040516102a89190610b10565b60405180910390f35b3480156102bc575f80fd5b506102c561096f565b6040516102d291906109b0565b60405180910390f35b5f6001600a436102eb9190610b56565b6102f59190610bb3565b9050610300816104d5565b50565b60035481565b5f8054906101000a900473ffffffffffffffffffffffffffffffffffffffff1673ffffffffffffffffffffffffffffffffffffffff163373ffffffffffffffffffffffffffffffffffffffff1614610396576040517f08c379a000000000000000000000000000000000000000000000000000000000815260040161038d90610c40565b60405180910390fd5b5f4790505f8054906101000a900473ffffffffffffffffffffffffffffffffffffffff1673ffffffffffffffffffffffffffffffffffffffff166108fc8290811502906040515f60405180830381858888f193505050501580156103fc573d5f803e3d5ffd5b5050565b5f805f90505b60058054905081101561049e578273ffffffffffffffffffffffffffffffffffffffff166005828154811061043e5761043d610c5e565b5b905f5260205f20015f9054906101000a900473ffffffffffffffffffffffffffffffffffffffff1673ffffffffffffffffffffffffffffffffffffffff160361048b5760019150506104a3565b808061049690610c8b565b915050610406565b505f90505b919050565b5f8054906101000a905050565b6006602052805f5260405f205f91509050805f0154908060010154905082565b6104dd610975565b5f805b60058054905081101561062e575f6005828154811061050257610501610c5e565b5b905f5260205f20015f9054906101000a900473ffffffffffffffffffffffffffffffffffffffff1690508460065f8373ffffffffffffffffffffffffffffffffffffffff1673ffffffffffffffffffffffffffffffffffffffff1681526020019081526020015f2060010154036105cd578084846064811061058757610586610c5e565b5b602002019073ffffffffffffffffffffffffffffffffffffffff16908173ffffffffffffffffffffffffffffffffffffffff168152505082806105c990610c8b565b9350505b60065f8273ffffffffffffffffffffffffffffffffffffffff1673ffffffffffffffffffffffffffffffffffffffff1681526020019081526020015f205f8082015f9055600182015f9055505050808061062690610c8b565b9150506104e0565b505f606460025461063f9190610cd2565b90505f5b82811015610704575f73ffffffffffffffffffffffffffffffffffffffff1684826064811061067557610674610c5e565b5b602002015173ffffffffffffffffffffffffffffffffffffffff16146106f1578381606481106106a8576106a7610c5e565b5b602002015173ffffffffffffffffffffffffffffffffffffffff166108fc8390811502906040515f60405180830381858888f193505050501580156106ef573d5f803e3d5ffd5b505b80806106fc90610c8b565b915050610643565b5050505050565b61071433610400565b15610754576040517f08c379a000000000000000000000000000000000000000000000000000000000815260040161074b90610d4c565b60405180910390fd5b600181101580156107665750600a8111155b6107a5576040517f08c379a000000000000000000000000000000000000000000000000000000000815260040161079c90610db4565b60405180910390fd5b6001543410156107ea576040517f08c379a00000000000000000000000000000000000000000000000000000000081526004016107e190610e1c565b60405180910390fd5b3460065f3373ffffffffffffffffffffffffffffffffffffffff1673ffffffffffffffffffffffffffffffffffffffff1681526020019081526020015f205f01819055508060065f3373ffffffffffffffffffffffffffffffffffffffff1673ffffffffffffffffffffffffffffffffffffffff1681526020019081526020015f206001018190555060035f81548092919061088590610c8b565b9190505550600533908060018154018082558091505060019003905f5260205f20015f9091909190916101000a81548173ffffffffffffffffffffffffffffffffffffffff021916908373ffffffffffffffffffffffffffffffffffffffff1602179055503460025f8282546108fb9190610bb3565b9250508190555050565b5f8054906101000a900473ffffffffffffffffffffffffffffffffffffffff1681565b60015481565b60045481565b60058181548110610943575f80fd5b905f5260205f20015f915054906101000a900473ffffffffffffffffffffffffffffffffffffffff1681565b60025481565b60405180610c800160405280606490602082028036833780820191505090505090565b5f819050919050565b6109aa81610998565b82525050565b5f6020820190506109c35f8301846109a1565b92915050565b5f80fd5b5f73ffffffffffffffffffffffffffffffffffffffff82169050919050565b5f6109f6826109cd565b9050919050565b610a06816109ec565b8114610a10575f80fd5b50565b5f81359050610a21816109fd565b92915050565b5f60208284031215610a3c57610a3b6109c9565b5b5f610a4984828501610a13565b91505092915050565b5f8115159050919050565b610a6681610a52565b82525050565b5f602082019050610a7f5f830184610a5d565b92915050565b5f604082019050610a985f8301856109a1565b610aa560208301846109a1565b9392505050565b610ab581610998565b8114610abf575f80fd5b50565b5f81359050610ad081610aac565b92915050565b5f60208284031215610aeb57610aea6109c9565b5b5f610af884828501610ac2565b91505092915050565b610b0a816109ec565b82525050565b5f602082019050610b235f830184610b01565b92915050565b7f4e487b71000000000000000000000000000000000000000000000000000000005f52601260045260245ffd5b5f610b6082610998565b9150610b6b83610998565b925082610b7b57610b7a610b29565b5b828206905092915050565b7f4e487b71000000000000000000000000000000000000000000000000000000005f52601160045260245ffd5b5f610bbd82610998565b9150610bc883610998565b9250828201905080821115610be057610bdf610b86565b5b92915050565b5f82825260208201905092915050565b7f4f6e6c7920746865206f776e65722063616e20776974686472617700000000005f82015250565b5f610c2a601b83610be6565b9150610c3582610bf6565b602082019050919050565b5f6020820190508181035f830152610c5781610c1e565b9050919050565b7f4e487b71000000000000000000000000000000000000000000000000000000005f52603260045260245ffd5b5f610c9582610998565b91507fffffffffffffffffffffffffffffffffffffffffffffffffffffffffffffffff8203610cc757610cc6610b86565b5b600182019050919050565b5f610cdc82610998565b9150610ce783610998565b925082610cf757610cf6610b29565b5b828204905092915050565b7f506c6179657220616c72656164792065786973747300000000000000000000005f82015250565b5f610d36601583610be6565b9150610d4182610d02565b602082019050919050565b5f6020820190508181035f830152610d6381610d2a565b9050919050565b7f496e76616c6964206e756d6265722073656c65637465640000000000000000005f82015250565b5f610d9e601783610be6565b9150610da982610d6a565b602082019050919050565b5f6020820190508181035f830152610dcb81610d92565b9050919050565b7f42657420616d6f756e7420746f6f206c6f7700000000000000000000000000005f82015250565b5f610e06601283610be6565b9150610e1182610dd2565b602082019050919050565b5f6020820190508181035f830152610e3381610dfa565b905091905056fea2646970667358221220e42e023f8299163270f23dc60e07048e2389d1cbb56a75a5fe954ac9a51412d364736f6c63430008150033",
  "immutableReferences": {},
  "source": "// SPDX-License-Identifier: MIT\npragma solidity >=0.4.22 <0.9.0;\n\ncontract Casino {\n    address public owner;\n    uint256 public minimumBet;\n    uint256 public totalBet;\n    uint256 public numberOfBets;\n    uint256 public maxAmountOfBets =   100;\n    address[] public players; // Declare the players array here\n\n    struct Player {\n        uint256 amountBet;\n        uint256 numberSelected;\n    }\n\n    mapping(address => Player) public playerInfo;\n\n\n    // Fallback function to receive plain Ether transactions\n    fallback() external payable {}\n\n    // Receive function to handle Ether transfers\n    receive() external payable {}\n\n    // Constructor without visibility specifier\n    constructor(uint256 _minimumBet) {\n        owner = msg.sender;\n        if (_minimumBet !=   0) minimumBet = _minimumBet;\n    }\n\n    function kill() public {\n        if(msg.sender == owner) {\n            // Implement a withdrawal function instead of selfdestruct\n            // selfdestruct(owner);\n        }\n    }\n\n    function checkPlayerExists(address player) public view returns(bool) {\n        for(uint256 i =   0; i < players.length; i++) {\n            if(players[i] == player) return true;\n        }\n        return false;\n    }\n\n    // To bet for a number between   1 and   10 both inclusive\n    function bet(uint256 numberSelected) public payable {\n        require(!checkPlayerExists(msg.sender), \"Player already exists\");\n        require(numberSelected >=   1 && numberSelected <=   10, \"Invalid number selected\");\n        require(msg.value >= minimumBet, \"Bet amount too low\");\n\n        playerInfo[msg.sender].amountBet = msg.value;\n        playerInfo[msg.sender].numberSelected = numberSelected;\n        numberOfBets++;\n        players.push(msg.sender);\n        totalBet += msg.value;\n    }\n\n    // Generates a number between   1 and   10 that will be the winner\n    function generateNumberWinner() public {\n        uint256 numberGenerated = block.number %   10 +   1; // This isn't secure\n        distributePrizes(numberGenerated);\n    }\n\n    // Sends the corresponding   ether to each winner depending on the total bets\n    function distributePrizes(uint256 numberWinner) public {\n    address[100] memory winners; // We have to create a temporary in memory array with fixed size\n    uint256 count =   0; // This is the count for the array of winners\n    for(uint256 i =   0; i < players.length; i++){\n        address playerAddress = players[i];\n        if(playerInfo[playerAddress].numberSelected == numberWinner){\n            winners[count] = playerAddress;\n            count++;\n        }\n        delete playerInfo[playerAddress]; // Delete all the players\n    }\n    //players.length =  0; // Clear all the players array\n    uint256 winnerEtherAmount = totalBet / winners.length; // How much each winner gets\n    for(uint256 j =   0; j < count; j++){\n        if(winners[j] != address(0)) // Check that the address in this fixed array is not empty\n            payable(winners[j]).transfer(winnerEtherAmount); // Cast to address payable before transferring\n    }\n}\n\n    // Function to allow the owner to withdraw all the funds\n    function withdraw() public {\n        require(msg.sender == owner, \"Only the owner can withdraw\");\n        uint256 balance = address(this).balance;\n        payable(owner).transfer(balance);\n    }\n}",
  "sourcePath": "/home/abresh/Desktop/ethereum-location-smart-contract/contracts/RefundCompliance.sol",
  "compiler": {
    "name": "solc",
    "version": "0.8.21+commit.d9974bed.Emscripten.clang"
  },
  "schemaVersion": "3.4.16",
  "updatedAt": "2024-02-10T21:28:49.240Z",
  "devdoc": {
    "kind": "dev",
    "methods": {},
    "version": 1
  },
  "userdoc": {
    "kind": "user",
    "methods": {},
    "version": 1
  }
}